{
    "contractName": "OrderBook",
    "abi": [
        {
            "inputs": [
                {
                    "internalType": "contract OrderDexToken",
                    "name": "_nativeToken",
                    "type": "address"
                },
                {
                    "internalType": "contract IWETH",
                    "name": "_weth",
                    "type": "address"
                }
            ],
            "stateMutability": "nonpayable",
            "type": "constructor"
        },
        {
            "anonymous": false,
            "inputs": [
                {
                    "indexed": true,
                    "internalType": "uint256",
                    "name": "id",
                    "type": "uint256"
                },
                {
                    "indexed": true,
                    "internalType": "address",
                    "name": "trader",
                    "type": "address"
                },
                {
                    "components": [
                        {
                            "internalType": "uint256",
                            "name": "id",
                            "type": "uint256"
                        },
                        {
                            "internalType": "enum OrderBook.OrderStatus",
                            "name": "status",
                            "type": "uint8"
                        },
                        {
                            "internalType": "uint256",
                            "name": "feeAmount",
                            "type": "uint256"
                        },
                        {
                            "internalType": "uint256",
                            "name": "amountToSell",
                            "type": "uint256"
                        },
                        {
                            "internalType": "uint256",
                            "name": "amountToBuy",
                            "type": "uint256"
                        },
                        {
                            "internalType": "uint256",
                            "name": "amountToSellCompleted",
                            "type": "uint256"
                        },
                        {
                            "internalType": "uint256",
                            "name": "amountToBuyCompleted",
                            "type": "uint256"
                        },
                        {
                            "internalType": "address",
                            "name": "trader",
                            "type": "address"
                        },
                        {
                            "internalType": "address",
                            "name": "tokenToSell",
                            "type": "address"
                        },
                        {
                            "internalType": "address",
                            "name": "tokenToBuy",
                            "type": "address"
                        },
                        {
                            "internalType": "uint256",
                            "name": "timestamp",
                            "type": "uint256"
                        },
                        {
                            "internalType": "bool",
                            "name": "fromETH",
                            "type": "bool"
                        },
                        {
                            "internalType": "bool",
                            "name": "toETH",
                            "type": "bool"
                        }
                    ],
                    "indexed": false,
                    "internalType": "struct OrderBook.Order",
                    "name": "orderInfo",
                    "type": "tuple"
                }
            ],
            "name": "OrderAdded",
            "type": "event"
        },
        {
            "anonymous": false,
            "inputs": [
                {
                    "indexed": true,
                    "internalType": "uint256",
                    "name": "id",
                    "type": "uint256"
                },
                {
                    "indexed": false,
                    "internalType": "bool",
                    "name": "partiallySold",
                    "type": "bool"
                }
            ],
            "name": "OrderCanceled",
            "type": "event"
        },
        {
            "anonymous": false,
            "inputs": [
                {
                    "indexed": true,
                    "internalType": "address",
                    "name": "previousOwner",
                    "type": "address"
                },
                {
                    "indexed": true,
                    "internalType": "address",
                    "name": "newOwner",
                    "type": "address"
                }
            ],
            "name": "OwnershipTransferred",
            "type": "event"
        },
        {
            "anonymous": false,
            "inputs": [
                {
                    "indexed": true,
                    "internalType": "bytes32",
                    "name": "role",
                    "type": "bytes32"
                },
                {
                    "indexed": true,
                    "internalType": "bytes32",
                    "name": "previousAdminRole",
                    "type": "bytes32"
                },
                {
                    "indexed": true,
                    "internalType": "bytes32",
                    "name": "newAdminRole",
                    "type": "bytes32"
                }
            ],
            "name": "RoleAdminChanged",
            "type": "event"
        },
        {
            "anonymous": false,
            "inputs": [
                {
                    "indexed": true,
                    "internalType": "bytes32",
                    "name": "role",
                    "type": "bytes32"
                },
                {
                    "indexed": true,
                    "internalType": "address",
                    "name": "account",
                    "type": "address"
                },
                {
                    "indexed": true,
                    "internalType": "address",
                    "name": "sender",
                    "type": "address"
                }
            ],
            "name": "RoleGranted",
            "type": "event"
        },
        {
            "anonymous": false,
            "inputs": [
                {
                    "indexed": true,
                    "internalType": "bytes32",
                    "name": "role",
                    "type": "bytes32"
                },
                {
                    "indexed": true,
                    "internalType": "address",
                    "name": "account",
                    "type": "address"
                },
                {
                    "indexed": true,
                    "internalType": "address",
                    "name": "sender",
                    "type": "address"
                }
            ],
            "name": "RoleRevoked",
            "type": "event"
        },
        {
            "anonymous": false,
            "inputs": [
                {
                    "indexed": true,
                    "internalType": "uint256",
                    "name": "orderIdA",
                    "type": "uint256"
                },
                {
                    "indexed": true,
                    "internalType": "uint256",
                    "name": "orderIdB",
                    "type": "uint256"
                },
                {
                    "indexed": true,
                    "internalType": "address",
                    "name": "trader",
                    "type": "address"
                },
                {
                    "indexed": false,
                    "internalType": "uint256",
                    "name": "amount",
                    "type": "uint256"
                },
                {
                    "indexed": false,
                    "internalType": "bool",
                    "name": "filled",
                    "type": "bool"
                }
            ],
            "name": "Sold",
            "type": "event"
        },
        {
            "inputs": [],
            "name": "DEFAULT_ADMIN_ROLE",
            "outputs": [
                {
                    "internalType": "bytes32",
                    "name": "",
                    "type": "bytes32"
                }
            ],
            "stateMutability": "view",
            "type": "function"
        },
        {
            "inputs": [],
            "name": "MATCHER_ROLE",
            "outputs": [
                {
                    "internalType": "bytes32",
                    "name": "",
                    "type": "bytes32"
                }
            ],
            "stateMutability": "view",
            "type": "function"
        },
        {
            "inputs": [],
            "name": "MINTER_ROLE",
            "outputs": [
                {
                    "internalType": "bytes32",
                    "name": "",
                    "type": "bytes32"
                }
            ],
            "stateMutability": "view",
            "type": "function"
        },
        {
            "inputs": [],
            "name": "PAUSER_ROLE",
            "outputs": [
                {
                    "internalType": "bytes32",
                    "name": "",
                    "type": "bytes32"
                }
            ],
            "stateMutability": "view",
            "type": "function"
        },
        {
            "inputs": [],
            "name": "WETH",
            "outputs": [
                {
                    "internalType": "contract IWETH",
                    "name": "",
                    "type": "address"
                }
            ],
            "stateMutability": "view",
            "type": "function"
        },
        {
            "inputs": [
                {
                    "internalType": "uint256",
                    "name": "orderId",
                    "type": "uint256"
                }
            ],
            "name": "cancelOrder",
            "outputs": [],
            "stateMutability": "payable",
            "type": "function"
        },
        {
            "inputs": [
                {
                    "internalType": "address",
                    "name": "tokenToSell",
                    "type": "address"
                },
                {
                    "internalType": "address",
                    "name": "tokenToBuy",
                    "type": "address"
                },
                {
                    "internalType": "uint256",
                    "name": "amountToSell",
                    "type": "uint256"
                },
                {
                    "internalType": "uint256",
                    "name": "amountToBuy",
                    "type": "uint256"
                },
                {
                    "internalType": "bool",
                    "name": "toETH",
                    "type": "bool"
                }
            ],
            "name": "createOrder",
            "outputs": [],
            "stateMutability": "nonpayable",
            "type": "function"
        },
        {
            "inputs": [
                {
                    "internalType": "address",
                    "name": "tokenToBuy",
                    "type": "address"
                },
                {
                    "internalType": "uint256",
                    "name": "amountToBuy",
                    "type": "uint256"
                }
            ],
            "name": "createOrderFromETH",
            "outputs": [],
            "stateMutability": "payable",
            "type": "function"
        },
        {
            "inputs": [],
            "name": "creationFee",
            "outputs": [
                {
                    "internalType": "uint256",
                    "name": "",
                    "type": "uint256"
                }
            ],
            "stateMutability": "view",
            "type": "function"
        },
        {
            "inputs": [
                {
                    "internalType": "uint256",
                    "name": "cursor",
                    "type": "uint256"
                },
                {
                    "internalType": "uint256",
                    "name": "howMany",
                    "type": "uint256"
                }
            ],
            "name": "fetchPageOrders",
            "outputs": [
                {
                    "components": [
                        {
                            "internalType": "uint256",
                            "name": "id",
                            "type": "uint256"
                        },
                        {
                            "internalType": "enum OrderBook.OrderStatus",
                            "name": "status",
                            "type": "uint8"
                        },
                        {
                            "internalType": "uint256",
                            "name": "feeAmount",
                            "type": "uint256"
                        },
                        {
                            "internalType": "uint256",
                            "name": "amountToSell",
                            "type": "uint256"
                        },
                        {
                            "internalType": "uint256",
                            "name": "amountToBuy",
                            "type": "uint256"
                        },
                        {
                            "internalType": "uint256",
                            "name": "amountToSellCompleted",
                            "type": "uint256"
                        },
                        {
                            "internalType": "uint256",
                            "name": "amountToBuyCompleted",
                            "type": "uint256"
                        },
                        {
                            "internalType": "address",
                            "name": "trader",
                            "type": "address"
                        },
                        {
                            "internalType": "address",
                            "name": "tokenToSell",
                            "type": "address"
                        },
                        {
                            "internalType": "address",
                            "name": "tokenToBuy",
                            "type": "address"
                        },
                        {
                            "internalType": "uint256",
                            "name": "timestamp",
                            "type": "uint256"
                        },
                        {
                            "internalType": "bool",
                            "name": "fromETH",
                            "type": "bool"
                        },
                        {
                            "internalType": "bool",
                            "name": "toETH",
                            "type": "bool"
                        }
                    ],
                    "internalType": "struct OrderBook.Order[]",
                    "name": "values",
                    "type": "tuple[]"
                },
                {
                    "internalType": "uint256",
                    "name": "newCursor",
                    "type": "uint256"
                }
            ],
            "stateMutability": "view",
            "type": "function"
        },
        {
            "inputs": [
                {
                    "internalType": "bytes32",
                    "name": "role",
                    "type": "bytes32"
                }
            ],
            "name": "getRoleAdmin",
            "outputs": [
                {
                    "internalType": "bytes32",
                    "name": "",
                    "type": "bytes32"
                }
            ],
            "stateMutability": "view",
            "type": "function"
        },
        {
            "inputs": [
                {
                    "internalType": "bytes32",
                    "name": "role",
                    "type": "bytes32"
                },
                {
                    "internalType": "uint256",
                    "name": "index",
                    "type": "uint256"
                }
            ],
            "name": "getRoleMember",
            "outputs": [
                {
                    "internalType": "address",
                    "name": "",
                    "type": "address"
                }
            ],
            "stateMutability": "view",
            "type": "function"
        },
        {
            "inputs": [
                {
                    "internalType": "bytes32",
                    "name": "role",
                    "type": "bytes32"
                }
            ],
            "name": "getRoleMemberCount",
            "outputs": [
                {
                    "internalType": "uint256",
                    "name": "",
                    "type": "uint256"
                }
            ],
            "stateMutability": "view",
            "type": "function"
        },
        {
            "inputs": [
                {
                    "internalType": "bytes32",
                    "name": "role",
                    "type": "bytes32"
                },
                {
                    "internalType": "address",
                    "name": "account",
                    "type": "address"
                }
            ],
            "name": "grantRole",
            "outputs": [],
            "stateMutability": "nonpayable",
            "type": "function"
        },
        {
            "inputs": [
                {
                    "internalType": "bytes32",
                    "name": "role",
                    "type": "bytes32"
                },
                {
                    "internalType": "address",
                    "name": "account",
                    "type": "address"
                }
            ],
            "name": "hasRole",
            "outputs": [
                {
                    "internalType": "bool",
                    "name": "",
                    "type": "bool"
                }
            ],
            "stateMutability": "view",
            "type": "function"
        },
        {
            "inputs": [],
            "name": "nativeToken",
            "outputs": [
                {
                    "internalType": "contract OrderDexToken",
                    "name": "",
                    "type": "address"
                }
            ],
            "stateMutability": "view",
            "type": "function"
        },
        {
            "inputs": [],
            "name": "orderCount",
            "outputs": [
                {
                    "internalType": "uint256",
                    "name": "",
                    "type": "uint256"
                }
            ],
            "stateMutability": "view",
            "type": "function"
        },
        {
            "inputs": [
                {
                    "internalType": "uint256",
                    "name": "",
                    "type": "uint256"
                }
            ],
            "name": "orders",
            "outputs": [
                {
                    "internalType": "uint256",
                    "name": "id",
                    "type": "uint256"
                },
                {
                    "internalType": "enum OrderBook.OrderStatus",
                    "name": "status",
                    "type": "uint8"
                },
                {
                    "internalType": "uint256",
                    "name": "feeAmount",
                    "type": "uint256"
                },
                {
                    "internalType": "uint256",
                    "name": "amountToSell",
                    "type": "uint256"
                },
                {
                    "internalType": "uint256",
                    "name": "amountToBuy",
                    "type": "uint256"
                },
                {
                    "internalType": "uint256",
                    "name": "amountToSellCompleted",
                    "type": "uint256"
                },
                {
                    "internalType": "uint256",
                    "name": "amountToBuyCompleted",
                    "type": "uint256"
                },
                {
                    "internalType": "address",
                    "name": "trader",
                    "type": "address"
                },
                {
                    "internalType": "address",
                    "name": "tokenToSell",
                    "type": "address"
                },
                {
                    "internalType": "address",
                    "name": "tokenToBuy",
                    "type": "address"
                },
                {
                    "internalType": "uint256",
                    "name": "timestamp",
                    "type": "uint256"
                },
                {
                    "internalType": "bool",
                    "name": "fromETH",
                    "type": "bool"
                },
                {
                    "internalType": "bool",
                    "name": "toETH",
                    "type": "bool"
                }
            ],
            "stateMutability": "view",
            "type": "function"
        },
        {
            "inputs": [],
            "name": "owner",
            "outputs": [
                {
                    "internalType": "address",
                    "name": "",
                    "type": "address"
                }
            ],
            "stateMutability": "view",
            "type": "function"
        },
        {
            "inputs": [],
            "name": "renounceOwnership",
            "outputs": [],
            "stateMutability": "nonpayable",
            "type": "function"
        },
        {
            "inputs": [
                {
                    "internalType": "bytes32",
                    "name": "role",
                    "type": "bytes32"
                },
                {
                    "internalType": "address",
                    "name": "account",
                    "type": "address"
                }
            ],
            "name": "renounceRole",
            "outputs": [],
            "stateMutability": "nonpayable",
            "type": "function"
        },
        {
            "inputs": [
                {
                    "internalType": "bytes32",
                    "name": "role",
                    "type": "bytes32"
                },
                {
                    "internalType": "address",
                    "name": "account",
                    "type": "address"
                }
            ],
            "name": "revokeRole",
            "outputs": [],
            "stateMutability": "nonpayable",
            "type": "function"
        },
        {
            "inputs": [
                {
                    "internalType": "uint256",
                    "name": "_fee",
                    "type": "uint256"
                }
            ],
            "name": "rewardfee",
            "outputs": [
                {
                    "internalType": "uint256",
                    "name": "",
                    "type": "uint256"
                }
            ],
            "stateMutability": "pure",
            "type": "function"
        },
        {
            "inputs": [
                {
                    "internalType": "uint256",
                    "name": "orderId",
                    "type": "uint256"
                },
                {
                    "internalType": "uint256[]",
                    "name": "ordersMatches",
                    "type": "uint256[]"
                }
            ],
            "name": "sellOrder",
            "outputs": [],
            "stateMutability": "nonpayable",
            "type": "function"
        },
        {
            "inputs": [
                {
                    "internalType": "bytes4",
                    "name": "interfaceId",
                    "type": "bytes4"
                }
            ],
            "name": "supportsInterface",
            "outputs": [
                {
                    "internalType": "bool",
                    "name": "",
                    "type": "bool"
                }
            ],
            "stateMutability": "view",
            "type": "function"
        },
        {
            "inputs": [
                {
                    "internalType": "address",
                    "name": "newOwner",
                    "type": "address"
                }
            ],
            "name": "transferOwnership",
            "outputs": [],
            "stateMutability": "nonpayable",
            "type": "function"
        },
        {
            "stateMutability": "payable",
            "type": "receive"
        }
    ],
    "bytecode": "60c0604052671bc16d674ec800006003553480156200001d57600080fd5b506040516200311f3803806200311f8339810160408190526200004091620002aa565b6200004b33620000f4565b6200005860003362000144565b620000847f9f2df0fed2c77648de5860a4cc508cd0818c85b8b8a1ab4ceeef8d981c8956a63362000144565b620000b07fdf91394c13c48ebd5370100f1eb84afe3c6c47a78f9f9f874d5a9ec6afe0ae6b3362000144565b620000dc7f65d7a28e3265b37a6474929f336521b332c1681b933f6cb9f3376673440d862a3362000144565b6001600160a01b039182166080521660a052620002e9565b600080546001600160a01b038381166001600160a01b0319831681178455604051919092169283917f8be0079c531659141344cd1fd0a4f28419497f9722a3daafe3b4186f6b6457e09190a35050565b62000150828262000154565b5050565b6200016b82826200019760201b620019d11760201c565b60008281526002602090815260409091206200019291839062001a3c6200021f821b17901c565b505050565b60008281526001602090815260408083206001600160a01b038516845290915290205460ff16620001505760008281526001602081815260408084206001600160a01b0386168086529252808420805460ff19169093179092559051339285917f2f8788117e7eff1d82e926ec794901d17c78024a50270940304540a733656f0d9190a45050565b600062000236836001600160a01b0384166200023f565b90505b92915050565b6000818152600183016020526040812054620002885750815460018181018455600084815260208082209093018490558454848252828601909352604090209190915562000239565b50600062000239565b6001600160a01b0381168114620002a757600080fd5b50565b60008060408385031215620002be57600080fd5b8251620002cb8162000291565b6020840151909250620002de8162000291565b809150509250929050565b60805160a051612da762000378600039600081816104220152818161065401528181610d3d01528181610e6301528181610fa10152611eef015260008181610562015281816106d8015281816107160152818161075501528181610c9c01528181610ee501528181610f24015281816120de0152818161211a015281816121a001526122480152612da76000f3fe6080604052600436106101855760003560e01c8063a217fddf116100d1578063cbb2b6111161008a578063dce0b4e411610064578063dce0b4e41461053a578063e1758bd814610550578063e63ab1e914610584578063f2fde38b146105b857600080fd5b8063cbb2b611146104b8578063d5391393146104e6578063d547741f1461051a57600080fd5b8063a217fddf1461034a578063a85c38ef1461035f578063ad5c464814610410578063b2194ff514610444578063c1bb088114610478578063ca15c8731461049857600080fd5b8063514fcac71161013e5780638bb9a6da116101185780638bb9a6da146102b85780638da5cb5b146102d85780639010d07c1461030a57806391d148541461032a57600080fd5b8063514fcac71461027d5780636de1983e14610290578063715018a6146102a357600080fd5b806301ffc9a71461019157806314cf93c0146101c65780632453ffa8146101e8578063248a9ca31461020c5780632f2ff15d1461023d57806336568abe1461025d57600080fd5b3661018c57005b600080fd5b34801561019d57600080fd5b506101b16101ac3660046126b6565b6105d8565b60405190151581526020015b60405180910390f35b3480156101d257600080fd5b506101e66101e136600461270a565b610603565b005b3480156101f457600080fd5b506101fe60055481565b6040519081526020016101bd565b34801561021857600080fd5b506101fe610227366004612765565b6000908152600160208190526040909120015490565b34801561024957600080fd5b506101e661025836600461277e565b610aca565b34801561026957600080fd5b506101e661027836600461277e565b610af5565b6101e661028b366004612765565b610b73565b6101e661029e3660046127aa565b610e21565b3480156102af57600080fd5b506101e6611176565b3480156102c457600080fd5b506101e66102d33660046127d4565b61118a565b3480156102e457600080fd5b506000546001600160a01b03165b6040516001600160a01b0390911681526020016101bd565b34801561031657600080fd5b506102f2610325366004612853565b611695565b34801561033657600080fd5b506101b161034536600461277e565b6116b4565b34801561035657600080fd5b506101fe600081565b34801561036b57600080fd5b506103f761037a366004612765565b600460208190526000918252604090912080546001820154600283015460038401549484015460058501546006860154600787015460088801546009890154600a8a0154600b909a0154989a60ff9889169a979990989697959694956001600160a01b03948516959385169490921692808216916101009004168d565b6040516101bd9d9c9b9a999897969594939291906128ad565b34801561041c57600080fd5b506102f27f000000000000000000000000000000000000000000000000000000000000000081565b34801561045057600080fd5b506101fe7fdf91394c13c48ebd5370100f1eb84afe3c6c47a78f9f9f874d5a9ec6afe0ae6b81565b34801561048457600080fd5b506101fe610493366004612765565b6116df565b3480156104a457600080fd5b506101fe6104b3366004612765565b6116ec565b3480156104c457600080fd5b506104d86104d3366004612853565b611703565b6040516101bd929190612927565b3480156104f257600080fd5b506101fe7f9f2df0fed2c77648de5860a4cc508cd0818c85b8b8a1ab4ceeef8d981c8956a681565b34801561052657600080fd5b506101e661053536600461277e565b611932565b34801561054657600080fd5b506101fe60035481565b34801561055c57600080fd5b506102f27f000000000000000000000000000000000000000000000000000000000000000081565b34801561059057600080fd5b506101fe7f65d7a28e3265b37a6474929f336521b332c1681b933f6cb9f3376673440d862a81565b3480156105c457600080fd5b506101e66105d3366004612a12565b611958565b60006001600160e01b03198216635a05180f60e01b14806105fd57506105fd82611a51565b92915050565b6000831161062c5760405162461bcd60e51b815260040161062390612a2d565b60405180910390fd5b6000821161064c5760405162461bcd60e51b815260040161062390612a6f565b80156106c8577f00000000000000000000000000000000000000000000000000000000000000006001600160a01b0316846001600160a01b0316146106c85760405162461bcd60e51b815260206004820152601260248201527157726f6e672077657468206164647265737360701b6044820152606401610623565b60008060035411801561070d57507f00000000000000000000000000000000000000000000000000000000000000006001600160a01b0316856001600160a01b031614155b801561074b57507f00000000000000000000000000000000000000000000000000000000000000006001600160a01b0316866001600160a01b031614155b156107845761077f7f0000000000000000000000000000000000000000000000000000000000000000335b30600354611a86565b506003545b6040516370a0823160e01b81523060048201526000906001600160a01b038816906370a0823190602401602060405180830381865afa1580156107cb573d6000803e3d6000fd5b505050506040513d601f19601f820116820180604052508101906107ef9190612ab0565b90506107fd87333088611a86565b6040516370a0823160e01b81523060048201526000906001600160a01b038916906370a0823190602401602060405180830381865afa158015610844573d6000803e3d6000fd5b505050506040513d601f19601f820116820180604052508101906108689190612ab0565b9050856108758383612adf565b10156108be5760405162461bcd60e51b81526020600482015260186024820152772234b23713ba1039bab83837b93a103a30bc103a37b5b2b760411b6044820152606401610623565b604080516101a081019091526005548152602081016000815260200184815260200187815260200186815260200160008152602001600081526020016109013390565b6001600160a01b03168152602001896001600160a01b03168152602001886001600160a01b031681526020014281526020016000151581526020018515158152506004600060055481526020019081526020016000206000820151816000015560208201518160010160006101000a81548160ff0219169083600381111561098b5761098b612875565b021790555060408201516002820155606082015160038201556080820151600482015560a0820151600582015560c0820151600682015560e08201516007820180546001600160a01b03199081166001600160a01b03938416179091556101008085015160088501805484169185169190911790556101208501516009850180549093169316929092179055610140830151600a830155610160830151600b90920180546101809094015161ffff1990941692151561ff0019169290921792151502919091179055336001600160a01b03166005547fa40d36c36cb702975672333b964658ee56a999d624a62bbbc5d840070550730e600460006005548152602001908152602001600020604051610aa39190612af2565b60405180910390a360058054906000610abb83612ba6565b91905055505050505050505050565b60008281526001602081905260409091200154610ae681611bc4565b610af08383611bce565b505050565b6001600160a01b0381163314610b655760405162461bcd60e51b815260206004820152602f60248201527f416363657373436f6e74726f6c3a2063616e206f6e6c792072656e6f756e636560448201526e103937b632b9903337b91039b2b63360891b6064820152608401610623565b610b6f8282611bf0565b5050565b600081815260046020526040812090600182015460ff166003811115610b9b57610b9b612875565b14610be85760405162461bcd60e51b815260206004820152601d60248201527f4f72646572206973206e6f206c6f6e67657220617661696c61626c65210000006044820152606401610623565b60078101546001600160a01b03163314610c445760405162461bcd60e51b815260206004820181905260248201527f4f6e6c79207468652073656c6c65722063616e2063616e63656c206f726465726044820152606401610623565b600681015415801590610c655760018201805460ff19166003179055610c76565b6001828101805460ff191690911790555b600282015415610d01576002820154604051630852cd8d60e31b815260048101919091527f00000000000000000000000000000000000000000000000000000000000000006001600160a01b0316906342966c6890602401600060405180830381600087803b158015610ce857600080fd5b505af1158015610cfc573d6000803e3d6000fd5b505050505b600082600501548360030154610d179190612adf565b600b84015490915060ff1615610dbe57604051632e1a7d4d60e01b8152600481018290527f00000000000000000000000000000000000000000000000000000000000000006001600160a01b031690632e1a7d4d90602401600060405180830381600087803b158015610d8957600080fd5b505af1158015610d9d573d6000803e3d6000fd5b5050506007840154610db991506001600160a01b031682611c12565b610ddf565b60098301546007840154610ddf916001600160a01b03908116911683611cec565b837fb8eabf9de5130ac8741e0f7937253465825d3fb49841462d65dc31979b83ebef83604051610e13911515815260200190565b60405180910390a250505050565b60003411610e415760405162461bcd60e51b815260040161062390612a2d565b60008111610e615760405162461bcd60e51b815260040161062390612a6f565b7f00000000000000000000000000000000000000000000000000000000000000006001600160a01b031663d0e30db0346040518263ffffffff1660e01b81526004016000604051808303818588803b158015610ebc57600080fd5b505af1158015610ed0573d6000803e3d6000fd5b5050505050600080600354118015610f1a57507f00000000000000000000000000000000000000000000000000000000000000006001600160a01b0316836001600160a01b031614155b15610f4e57610f497f000000000000000000000000000000000000000000000000000000000000000033610776565b506003545b604080516101a08101909152600554815260208101600081526020018281526020013481526020018381526020016000815260200160008152602001610f913390565b6001600160a01b031681526020017f00000000000000000000000000000000000000000000000000000000000000006001600160a01b03168152602001846001600160a01b03168152602001428152602001600115158152602001600015158152506004600060055481526020019081526020016000206000820151816000015560208201518160010160006101000a81548160ff0219169083600381111561103c5761103c612875565b021790555060408201516002820155606082015160038201556080820151600482015560a0820151600582015560c0820151600682015560e08201516007820180546001600160a01b03199081166001600160a01b03938416179091556101008085015160088501805484169185169190911790556101208501516009850180549093169316929092179055610140830151600a830155610160830151600b90920180546101809094015161ffff1990941692151561ff0019169290921792151502919091179055336001600160a01b03166005547fa40d36c36cb702975672333b964658ee56a999d624a62bbbc5d840070550730e6004600060055481526020019081526020016000206040516111549190612af2565b60405180910390a36005805490600061116c83612ba6565b9190505550505050565b61117e611e1d565b6111886000611e77565b565b7fdf91394c13c48ebd5370100f1eb84afe3c6c47a78f9f9f874d5a9ec6afe0ae6b6111b481611bc4565b600084815260046020526040812090600182015460ff1660038111156111dc576111dc612875565b146112295760405162461bcd60e51b815260206004820152601f60248201527f4f726465722041206973206e6f206c6f6e67657220617661696c61626c6521006044820152606401610623565b826112615760405162461bcd60e51b815260206004820152600860248201526709cde40dac2e8c6d60c31b6044820152606401610623565b6000816006015482600401546112779190612adf565b9050600081116112c95760405162461bcd60e51b815260206004820152601f60248201527f4e6f7420656e6f75676820746f6b656e20696e20746865206f726465722041006044820152606401610623565b6000826003015483600401546112df9190612bbf565b905060005b8581101561168a5760006004600089898581811061130457611304612be1565b90506020020135815260200190815260200160002090506000600381111561132e5761132e612875565b600182015460ff16600381111561134757611347612875565b146113945760405162461bcd60e51b815260206004820152601f60248201527f4f726465722042206973206e6f206c6f6e67657220617661696c61626c6521006044820152606401610623565b600885015460098201546001600160a01b0390811691161480156113cc5750600985015460088201546001600160a01b039081169116145b61140e5760405162461bcd60e51b81526020600482015260136024820152720a8ded6cadc40c8decae6dc4ee840dac2e8c6d606b1b6044820152606401610623565b6000816005015482600301546114249190612adf565b9050600081116114765760405162461bcd60e51b815260206004820152601f60248201527f4e6f7420656e6f75676820746f6b656e20696e20746865206f726465722042006044820152606401610623565b60008260040154836003015461148c9190612bbf565b9050808510156114ce5760405162461bcd60e51b815260206004820152600d60248201526c0a0e4d2c6ca40e8de40d0d2ced609b1b6044820152606401610623565b85828111156114da5750815b60006114e68783612bbf565b90506114f28983611ec7565b818960060160008282546115069190612bf7565b92505081905550818560050160008282546115219190612bf7565b9091555061153190508582611ec7565b808960050160008282546115459190612bf7565b92505081905550808560060160008282546115609190612bf7565b90915550506004898101546006808c0154928801549088015460078d015489548e54604080518a815297909614602088018190529693909414946001600160a01b0390921693909290917f868d2888dc0e4279a32380f29ff4323e75852d69f4ecca53b837d4679f2f1a98910160405180910390a460078701548b5488546040805187815285151560208201526001600160a01b03909416937f868d2888dc0e4279a32380f29ff4323e75852d69f4ecca53b837d4679f2f1a98910160405180910390a480156116425760018701805460ff19166002179055611642876120d7565b81156116705760018b01805460ff191660021790556116608b6120d7565b505050505050505050505061168f565b50505050505050808061168290612ba6565b9150506112e4565b505050505b50505050565b60008281526002602052604081206116ad90836122b1565b9392505050565b60009182526001602090815260408084206001600160a01b0393909316845291905290205460ff1690565b60006105fd600283612bbf565b60008181526002602052604081206105fd906122bd565b6060600080839050846005546117199190612adf565b811115611731578460055461172e9190612adf565b90505b8067ffffffffffffffff81111561174a5761174a612c0a565b6040519080825280602002602001820160405280156117e157816020015b604080516101a08101825260008082526020808301829052928201819052606082018190526080820181905260a0820181905260c0820181905260e08201819052610100820181905261012082018190526101408201819052610160820181905261018082015282526000199092019101816117685790505b50925060005b8181101561191a57600460006117fd8389612bf7565b8152602001908152602001600020604051806101a0016040529081600082015481526020016001820160009054906101000a900460ff16600381111561184557611845612875565b600381111561185657611856612875565b815260028201546020820152600382015460408201526004820154606082015260058201546080820152600682015460a082015260078201546001600160a01b0390811660c08301526008830154811660e083015260098301541661010080830191909152600a830154610120830152600b9092015460ff808216151561014084015292900490911615156101609091015284518590839081106118fc576118fc612be1565b6020026020010181905250808061191290612ba6565b9150506117e7565b50826119268287612bf7565b92509250509250929050565b6000828152600160208190526040909120015461194e81611bc4565b610af08383611bf0565b611960611e1d565b6001600160a01b0381166119c55760405162461bcd60e51b815260206004820152602660248201527f4f776e61626c653a206e6577206f776e657220697320746865207a65726f206160448201526564647265737360d01b6064820152608401610623565b6119ce81611e77565b50565b6119db82826116b4565b610b6f5760008281526001602081815260408084206001600160a01b0386168086529252808420805460ff19169093179092559051339285917f2f8788117e7eff1d82e926ec794901d17c78024a50270940304540a733656f0d9190a45050565b60006116ad836001600160a01b0384166122c7565b60006001600160e01b03198216637965db0b60e01b14806105fd57506301ffc9a760e01b6001600160e01b03198316146105fd565b604080516001600160a01b0385811660248301528481166044830152606480830185905283518084039091018152608490920183526020820180516001600160e01b03166323b872dd60e01b1790529151600092839290881691611aea9190612c44565b6000604051808303816000865af19150503d8060008114611b27576040519150601f19603f3d011682016040523d82523d6000602084013e611b2c565b606091505b5091509150818015611b56575080511580611b56575080806020019051810190611b569190612c60565b611bbc5760405162461bcd60e51b815260206004820152603160248201527f5472616e7366657248656c7065723a3a7472616e7366657246726f6d3a207472604482015270185b9cd9995c919c9bdb4819985a5b1959607a1b6064820152608401610623565b505050505050565b6119ce8133612316565b611bd882826119d1565b6000828152600260205260409020610af09082611a3c565b611bfa828261237a565b6000828152600260205260409020610af090826123e1565b604080516000808252602082019092526001600160a01b038416908390604051611c3c9190612c44565b60006040518083038185875af1925050503d8060008114611c79576040519150601f19603f3d011682016040523d82523d6000602084013e611c7e565b606091505b5050905080610af05760405162461bcd60e51b815260206004820152603460248201527f5472616e7366657248656c7065723a3a736166655472616e736665724554483a60448201527308115512081d1c985b9cd9995c8819985a5b195960621b6064820152608401610623565b604080516001600160a01b038481166024830152604480830185905283518084039091018152606490920183526020820180516001600160e01b031663a9059cbb60e01b1790529151600092839290871691611d489190612c44565b6000604051808303816000865af19150503d8060008114611d85576040519150601f19603f3d011682016040523d82523d6000602084013e611d8a565b606091505b5091509150818015611db4575080511580611db4575080806020019051810190611db49190612c60565b611e165760405162461bcd60e51b815260206004820152602d60248201527f5472616e7366657248656c7065723a3a736166655472616e736665723a20747260448201526c185b9cd9995c8819985a5b1959609a1b6064820152608401610623565b5050505050565b6000546001600160a01b031633146111885760405162461bcd60e51b815260206004820181905260248201527f4f776e61626c653a2063616c6c6572206973206e6f7420746865206f776e65726044820152606401610623565b600080546001600160a01b038381166001600160a01b0319831681178455604051919092169283917f8be0079c531659141344cd1fd0a4f28419497f9722a3daafe3b4186f6b6457e09190a35050565b600b820154610100900460ff1615611f6b57604051632e1a7d4d60e01b8152600481018290527f00000000000000000000000000000000000000000000000000000000000000006001600160a01b031690632e1a7d4d90602401600060405180830381600087803b158015611f3b57600080fd5b505af1158015611f4f573d6000803e3d6000fd5b5050506007830154610b6f91506001600160a01b031682611c12565b600982015460078301546040516370a0823160e01b81526001600160a01b03918216600482015260009291909116906370a0823190602401602060405180830381865afa158015611fc0573d6000803e3d6000fd5b505050506040513d601f19601f82011682018060405250810190611fe49190612ab0565b60098401546007850154919250612008916001600160a01b03918216911684611cec565b600983015460078401546040516370a0823160e01b81526001600160a01b03918216600482015260009291909116906370a0823190602401602060405180830381865afa15801561205d573d6000803e3d6000fd5b505050506040513d601f19601f820116820180604052508101906120819190612ab0565b90508261208e8383612adf565b101561168f5760405162461bcd60e51b81526020600482015260186024820152772234b23713ba1039bab83837b93a103a30bc103a37b5b2b760411b6044820152606401610623565b60098101547f00000000000000000000000000000000000000000000000000000000000000006001600160a01b03908116911614801590612149575060088101547f00000000000000000000000000000000000000000000000000000000000000006001600160a01b03908116911614155b8015612159575060008160020154115b156119ce57600061216d82600201546116df565b9050801561221157600782015460405163a9059cbb60e01b81526001600160a01b039182166004820152602481018390527f00000000000000000000000000000000000000000000000000000000000000009091169063a9059cbb906044016020604051808303816000875af11580156121eb573d6000803e3d6000fd5b505050506040513d601f19601f8201168201806040525081019061220f9190612c60565b505b8160020154811015610b6f57600081836002015461222f9190612adf565b604051630852cd8d60e31b8152600481018290529091507f00000000000000000000000000000000000000000000000000000000000000006001600160a01b0316906342966c6890602401600060405180830381600087803b15801561229457600080fd5b505af11580156122a8573d6000803e3d6000fd5b50505050505050565b60006116ad83836123f6565b60006105fd825490565b600081815260018301602052604081205461230e575081546001818101845560008481526020808220909301849055845484825282860190935260409020919091556105fd565b5060006105fd565b61232082826116b4565b610b6f57612338816001600160a01b03166014612420565b612343836020612420565b604051602001612354929190612c7d565b60408051601f198184030181529082905262461bcd60e51b825261062391600401612cf2565b61238482826116b4565b15610b6f5760008281526001602090815260408083206001600160a01b0385168085529252808320805460ff1916905551339285917ff6391f5c32d9c69d2a47ea670b442974b53935d1edc7fd64eb21e047a839171b9190a45050565b60006116ad836001600160a01b0384166125bc565b600082600001828154811061240d5761240d612be1565b9060005260206000200154905092915050565b6060600061242f836002612d25565b61243a906002612bf7565b67ffffffffffffffff81111561245257612452612c0a565b6040519080825280601f01601f19166020018201604052801561247c576020820181803683370190505b509050600360fc1b8160008151811061249757612497612be1565b60200101906001600160f81b031916908160001a905350600f60fb1b816001815181106124c6576124c6612be1565b60200101906001600160f81b031916908160001a90535060006124ea846002612d25565b6124f5906001612bf7565b90505b600181111561256d576f181899199a1a9b1b9c1cb0b131b232b360811b85600f166010811061252957612529612be1565b1a60f81b82828151811061253f5761253f612be1565b60200101906001600160f81b031916908160001a90535060049490941c9361256681612d44565b90506124f8565b5083156116ad5760405162461bcd60e51b815260206004820181905260248201527f537472696e67733a20686578206c656e67746820696e73756666696369656e746044820152606401610623565b600081815260018301602052604081205480156126a55760006125e0600183612adf565b85549091506000906125f490600190612adf565b905081811461265957600086600001828154811061261457612614612be1565b906000526020600020015490508087600001848154811061263757612637612be1565b6000918252602080832090910192909255918252600188019052604090208390555b855486908061266a5761266a612d5b565b6001900381819060005260206000200160009055905585600101600086815260200190815260200160002060009055600193505050506105fd565b60009150506105fd565b5092915050565b6000602082840312156126c857600080fd5b81356001600160e01b0319811681146116ad57600080fd5b80356001600160a01b03811681146126f757600080fd5b919050565b80151581146119ce57600080fd5b600080600080600060a0868803121561272257600080fd5b61272b866126e0565b9450612739602087016126e0565b935060408601359250606086013591506080860135612757816126fc565b809150509295509295909350565b60006020828403121561277757600080fd5b5035919050565b6000806040838503121561279157600080fd5b823591506127a1602084016126e0565b90509250929050565b600080604083850312156127bd57600080fd5b6127c6836126e0565b946020939093013593505050565b6000806000604084860312156127e957600080fd5b83359250602084013567ffffffffffffffff8082111561280857600080fd5b818601915086601f83011261281c57600080fd5b81358181111561282b57600080fd5b8760208260051b850101111561284057600080fd5b6020830194508093505050509250925092565b6000806040838503121561286657600080fd5b50508035926020909101359150565b634e487b7160e01b600052602160045260246000fd5b600481106128a957634e487b7160e01b600052602160045260246000fd5b9052565b8d81526101a081016128c2602083018f61288b565b604082019c909c52606081019a909a5260808a019890985260a089019690965260c08801949094526001600160a01b0392831660e088015290821661010087015216610120850152610140840152151561016083015215156101809091015292915050565b6040808252835182820181905260009190606090818501906020808901865b838110156129fe57815180518652838101516129648588018261288b565b50808801518689015286810151878701526080808201519087015260a0808201519087015260c0808201519087015260e0808201516001600160a01b0390811691880191909152610100808301518216908801526101208083015190911690870152610140808201519087015261016080820151151590870152610180908101511515908601526101a09094019390820190600101612946565b505095909501959095525092949350505050565b600060208284031215612a2457600080fd5b6116ad826126e0565b60208082526022908201527f596f75206e65656420746f2073656c6c206d6f7265207468616e203020746f6b60408201526132b760f11b606082015260800190565b60208082526021908201527f596f75206e65656420746f20627579206d6f7265207468616e203020746f6b656040820152603760f91b606082015260800190565b600060208284031215612ac257600080fd5b5051919050565b634e487b7160e01b600052601160045260246000fd5b818103818111156105fd576105fd612ac9565b8154815260018201546101a082019060ff16612b11602084018261288b565b50600283015460408301526003830154606083015260048301546080830152600583015460a0830152600683015460c083015260078301546001600160a01b0390811660e084015260088085015482166101008501526009850154909116610120840152600a840154610140840152600b84015460ff80821615156101608601529181901c90911615156101808401526126af565b600060018201612bb857612bb8612ac9565b5060010190565b600082612bdc57634e487b7160e01b600052601260045260246000fd5b500490565b634e487b7160e01b600052603260045260246000fd5b808201808211156105fd576105fd612ac9565b634e487b7160e01b600052604160045260246000fd5b60005b83811015612c3b578181015183820152602001612c23565b50506000910152565b60008251612c56818460208701612c20565b9190910192915050565b600060208284031215612c7257600080fd5b81516116ad816126fc565b7f416363657373436f6e74726f6c3a206163636f756e7420000000000000000000815260008351612cb5816017850160208801612c20565b7001034b99036b4b9b9b4b733903937b6329607d1b6017918401918201528351612ce6816028840160208801612c20565b01602801949350505050565b6020815260008251806020840152612d11816040850160208701612c20565b601f01601f19169190910160400192915050565b6000816000190483118215151615612d3f57612d3f612ac9565b500290565b600081612d5357612d53612ac9565b506000190190565b634e487b7160e01b600052603160045260246000fdfea26469706673582212204fb9040dbb6f3aac81d397e033cae31d9e000e8a44f241399aa459e66e768b1d64736f6c63430008100033",
    "sourcePath": "c:/Users/Eddy/Source/Repos/order-dex/contracts/OrderBook.sol",
    "compiler": {
        "name": "solc",
        "version": "0.8.16+commit.07a7930e"
    },
    "functionHashes": {
        "DEFAULT_ADMIN_ROLE()": "a217fddf",
        "MATCHER_ROLE()": "b2194ff5",
        "MINTER_ROLE()": "d5391393",
        "PAUSER_ROLE()": "e63ab1e9",
        "WETH()": "ad5c4648",
        "cancelOrder(uint256)": "514fcac7",
        "createOrder(address,address,uint256,uint256,bool)": "14cf93c0",
        "createOrderFromETH(address,uint256)": "6de1983e",
        "creationFee()": "dce0b4e4",
        "fetchPageOrders(uint256,uint256)": "cbb2b611",
        "getRoleAdmin(bytes32)": "248a9ca3",
        "getRoleMember(bytes32,uint256)": "9010d07c",
        "getRoleMemberCount(bytes32)": "ca15c873",
        "grantRole(bytes32,address)": "2f2ff15d",
        "hasRole(bytes32,address)": "91d14854",
        "nativeToken()": "e1758bd8",
        "orderCount()": "2453ffa8",
        "orders(uint256)": "a85c38ef",
        "owner()": "8da5cb5b",
        "renounceOwnership()": "715018a6",
        "renounceRole(bytes32,address)": "36568abe",
        "revokeRole(bytes32,address)": "d547741f",
        "rewardfee(uint256)": "c1bb0881",
        "sellOrder(uint256,uint256[])": "8bb9a6da",
        "supportsInterface(bytes4)": "01ffc9a7",
        "transferOwnership(address)": "f2fde38b"
    },
    "gasEstimates": {
        "creation": {
            "codeDepositCost": "2337400",
            "executionCost": "infinite",
            "totalCost": "infinite"
        },
        "external": {
            "DEFAULT_ADMIN_ROLE()": "218",
            "MATCHER_ROLE()": "284",
            "MINTER_ROLE()": "262",
            "PAUSER_ROLE()": "283",
            "WETH()": "infinite",
            "cancelOrder(uint256)": "infinite",
            "createOrder(address,address,uint256,uint256,bool)": "infinite",
            "createOrderFromETH(address,uint256)": "infinite",
            "creationFee()": "2339",
            "fetchPageOrders(uint256,uint256)": "infinite",
            "getRoleAdmin(bytes32)": "2540",
            "getRoleMember(bytes32,uint256)": "infinite",
            "getRoleMemberCount(bytes32)": "infinite",
            "grantRole(bytes32,address)": "infinite",
            "hasRole(bytes32,address)": "2765",
            "nativeToken()": "infinite",
            "orderCount()": "2363",
            "orders(uint256)": "26221",
            "owner()": "2387",
            "renounceOwnership()": "infinite",
            "renounceRole(bytes32,address)": "infinite",
            "revokeRole(bytes32,address)": "infinite",
            "rewardfee(uint256)": "462",
            "sellOrder(uint256,uint256[])": "infinite",
            "supportsInterface(bytes4)": "infinite",
            "transferOwnership(address)": "28443"
        },
        "internal": {
            "_rewardTrader(struct OrderBook.Order storage pointer)": "infinite",
            "_sellTranfer(struct OrderBook.Order storage pointer,uint256)": "infinite"
        }
    }
}